:020000040800F2
:1000000060040020F52C00081525000817250008BD
:100010001B2500081F2500082325000800000000FC
:10002000000000000000000000000000272500087C
:1000300029250008000000002B2500082D250008B8
:100040000F2D00080F2D00080F2D00080F2D0008A0
:100050000F2D00080F2D00080F2D00080F2D000890
:100060000F2D00080F2D00080F2D00080F2D000880
:100070000F2D00080F2D00080F2D00080F2D000870
:100080000F2D00080F2D00080F2D00080F2D000860
:100090000F2D00080F2D00080F2D00080F2D000850
:1000A0000F2D00080F2D00080F2D00080F2D000840
:1000B0000F2D00080F2D00080F2D00080F2D000830
:1000C0000F2D00080F2D00080F2D00080F2D000820
:1000D0000F2D00080F2D00084B2500080F2D0008DC
:1000E000352500080F2D00080F2D00080F2D0008E2
:1000F0000F2D00080F2D00080F2D00080F2D0008F0
:100100000F2D00080F2D0008F92800080F2D0008FA
:100110000F2D00080F2D00080F2D00080F2D0008CF
:100120000F2D00080F2D00080F2D00080F2D0008BF
:10013000DFF80CD002F0F0FD00480047D924000899
:10014000600400200CB50020019000906B4800680E
:1001500040F480306949086000BF6848006800F4D6
:10016000003000900198401C0190009818B9019847
:10017000B0F5A06FF1D16148006810F4003F02D0E3
:100180000120009001E0002000900098012842D159
:100190005B48006840F01000594908600846006854
:1001A00020F0030008600846006840F00200086084
:1001B00052484068514948600846406848600846CF
:1001C000406840F4806048600846406820F47C1035
:1001D00048600846406840F4E810486008460068F7
:1001E00040F08070086000BF4448006810F0007F55
:1001F000FAD04248406820F0030040494860084671
:10020000406840F00200486000BF3C48406800F091
:100210000C000828F9D10CBD10B5FFF793FF10BDF5
:1002200010B53648006840F00100344908600846BF
:1002300040683449084031494860084600683249FE
:1002400008402E4908600846006820F480200860B5
:100250000846406820F4FE0048604FF41F008860A4
:10026000FFF7DAFF4FF000602849086010BD10B5B5
:10027000002100200022214B5B6803F00C0121B11A
:10028000042906D0082928D107E0214B214C2360FE
:1002900027E01F4B1F4C236023E0184B5B6803F4DF
:1002A0007010164B5B6803F48032022303EB90401E
:1002B00022B9194B4343174C23600DE00F4B5B6889
:1002C00013F4003F04D0144B4343124C236003E06B
:1002D0000F4B43430F4C236003E00D4B0D4C236049
:1002E00000BF00BF054B5B68C3F303130B4CE15C1D
:1002F000084B1B68CB40074C236010BD0010024028
:10030000002002400000FFF8FFFFF6FE08ED00E0CD
:1003100000127A000000002000093D0004000020C7
:1003200031490143314A1160704770B50021002303
:100330000F22C4780CB32D4C246804F4E064C4F597
:10034000E064210AC1F10403CA40447804FA03F1CD
:100350008478144021430901254C0678A15504787E
:1003600004F01F050124AC4005786D114FF0E02624
:1003700006EB8505C5F8004109E0047804F01F0587
:100380000124AC401B4D0678761145F8264070BD1F
:10039000194A0A400243154B1B1F1A60704739B1B6
:1003A000124A121D12680243104B1B1D1A6006E010
:1003B0000E4A121D126882430C4B1B1D1A607047B7
:1003C000042808D14FF0E021096941F004014FF001
:1003D000E022116107E04FF0E021096921F00401FA
:1003E0004FF0E022116170470000FA050CED00E0CB
:1003F00000E400E080E100E080FFFF1F10B504464C
:10040000CA48844208D10121042000F027FB0021C2
:10041000042000F023FB46E0C548844208D10121B6
:10042000082000F01BFB0021082000F017FB3AE039
:10043000C048844208D10121102000F00FFB0021A8
:10044000102000F00BFB2EE0BB48844208D10121B4
:10045000202000F003FB0021202000F0FFFA22E022
:10046000B648844208D10121402000F0F7FA00216B
:10047000402000F0F3FA16E0B148844208D101218F
:10048000802000F0EBFA0021802000F0E7FA0AE07B
:10049000AC48844207D10121801500F0DFFA002129
:1004A000A01500F0DBFA10BD10B50121084600F0E0
:1004B000D5FA0021012000F0D1FA10BD2DE9F0415C
:1004C000024600250026002000230024002791F882
:1004D00003C00CF00F0591F803C01CF0100F03D0FF
:1004E00091F802C04CEA050591F800C0BCF1000F7C
:1004F00031D0146800202BE04FF0010C0CFA00F30F
:10050000B1F800C00CEA03069E4220D183004FF0F0
:100510000F0C0CFA03F7BC4305FA03FC4CEA040485
:1005200091F803C0BCF1280F06D14FF0010C0CFA72
:1005300000FCC2F814C00AE091F803C0BCF1480FF7
:1005400005D14FF0010C0CFA00FCC2F810C0401CA1
:100550000828D1D31460B1F800C0BCF1FF0F34DD1E
:10056000546800202EE000F1080C4FF0010808FA52
:100570000CF3B1F800C00CEA03069E4221D18300BF
:100580004FF00F0C0CFA03F7BC4305FA03FC4CEADE
:10059000040491F803C0BCF1280F05D100F1080C48
:1005A00008FA0CF8C2F8148091F803C0BCF1480FA7
:1005B00007D100F1080C4FF0010808FA0CF8C2F856
:1005C0001080401C0828CED35460BDE8F0814FF65F
:1005D000FF710180022181700421C17070470246C1
:1005E000002093680B4201D0012000E000207047FA
:1005F0000146886880B2704702460020D3680B42EB
:1006000001D0012000E0002070470146C86880B298
:10061000704701617047416170470AB1016100E0B4
:1006200041617047C16070474FF480320A43826174
:100630008161826182698269704702460020424B73
:1006400018684FF68073184040EA021008433E4B8A
:10065000186070473D49C8617047F0B50A460023ED
:1006600000240021002500F00046B6F1004F02D121
:10067000354EF16901E0344E7168C0F3034583B231
:1006800000F44016B6F5401F08D121F070612E4EDF
:10069000766826F070662C4F7E6012E000F48016BB
:1006A000B6F5801F06D1032606FA05F4A14341F0F2
:1006B000706106E0460D360103FA06F6B14341F0DB
:1006C000706122B1460D360103FA06F6314300F09F
:1006D0000046B6F1004F02D11B4EF16101E01A4E07
:1006E0007160F0BD30B500228B071C0F0F2303FA99
:1006F00004F2154B08338C1053F824309343124CFA
:1007000008348D1044F8253023468C1053F82430DB
:100710008C07240F00FA04F423430B4C08348D108B
:1007200044F8253030BD0A49086070470008014090
:10073000000C01400010014000140140001801406D
:10074000001C014000200140000001400000204248
:10075000DC002042DD48006840F00100DB49086011
:1007600008464068DA490840D849486008460068A9
:10077000D8490840D54908600846006820F4802020
:1007800008600846406820F4FE0048604FF41F00EF
:1007900088607047CD49096821F48031CB4A1160E7
:1007A0001146096821F480211160B0F5803F03D023
:1007B000B0F5802F0ED106E0C449096841F48031BC
:1007C000C24A116007E0C149096841F4A021BF4A4B
:1007D000116000E000BF00BF704710B50146002265
:1007E000002300204A11012A02D1B84C236806E0F8
:1007F000022A02D1B54C236A01E0B44C636A01F0CD
:100800001F02012494401C4201D0012000E000207E
:1008100010BD38B5002000900024002500BF312015
:10082000FFF7DBFF05460098401C00900098B0F5EC
:10083000A06F01D0002DF2D03120FFF7CEFF08B11C
:10084000012400E00024204638BD014600209F4AD4
:10085000106820F0F80040EAC100106070479E491F
:100860000860704702460020984B586820F47C10BE
:1008700042EA01031843954B586070479649086651
:10088000704701460020914A506820F00300084359
:10089000506070478D48406800F00C00704701467A
:1008A00000208A4A506820F0F000084350607047EA
:1008B00001460020854A506820F4E06008435060FB
:1008C000704701460020814A506820F4605040EA99
:1008D000C1005060704729B17C4A527A02437B4B79
:1008E0005A7204E0794A527A8243784B5A727047BE
:1008F0007A490860704701460020744A506820F425
:1009000040400843506070470021754A11706F4A9B
:1009100082F82010012802D0042808D103E0012128
:100920006F4A117004E005216D4A117000E000BFAC
:1009300000BF70476B49086070476449096A01430A
:10094000624A11627047674944390860704730B5A0
:1009500000210022002400235C4D6D6805F00C018D
:1009600021B1042905D0082923D105E05E4D056099
:1009700022E05D4D05601FE0544D6D6805F4701276
:10098000524D6D6805F48034022505EB92421CB986
:10099000564D554305600BE04C4D6D6815F4003F16
:1009A00003D0524D5543056002E04F4D554305605D
:1009B00002E04D4D056000BF00BF444D6D6805F07D
:1009C000F00109094A4D6B5C0568DD4045603F4D0B
:1009D0006D6805F4E061090A454D6B5C4568DD40D2
:1009E00085603A4D6D6805F46051C90A404D6B5CF5
:1009F0004568DD40C560354D6D6805F44041890BA3
:100A00003C4D6B5CC568B5FBF3F5056130BD29B1A4
:100A10002E4A526902432D4B5A6104E02B4A526917
:100A200082432A4B5A61704729B1284A926902438E
:100A3000264B9A6104E0254A92698243234B9A61CE
:100A4000704729B1214AD2690243204BDA6104E0A0
:100A50001E4AD26982431D4BDA61704729B11B4A95
:100A6000D2680243194BDA6004E0184AD268824324
:100A7000164BDA60704729B1144A12690243134BCE
:100A80001A6104E0114A12698243104B1A617047DF
:100A900014494039086070470F49C86470470B49D2
:100AA000C87170470948406A40F080700749486241
:100AB000704701460020054A92680A4201D0012091
:100AC00000E0002070470149887270470010024022
:100AD0000000FFF8FFFFF6FE00004242D80042424D
:100AE000201002408004424200127A0000093D00BA
:100AF0001400002024000020002044490860091D43
:100B00000860091D0860091D086041483F4914310B
:100B10000860704700213D498279002A3AD00A4690
:100B2000126803689A430B461A600A1D126803682C
:100B30009A430B1D1A60027911440A6803681A432C
:100B40000A60324A0832126803689A432F4B08330E
:100B50001A601A1D126803689A432C4B0C331A60F2
:100B60004279102A0ED11A1F126803681A43274BC4
:100B700008331A601A1D126803681A43234B0C339A
:100B80001A600DE02149427911440A6803681A434A
:100B90000A6005E0027911440A6803689A430A6012
:100BA00070470021016001710C21417100218171A8
:100BB00070471649103109680143144A1032116018
:100BC000704701460020114A143212680A4201D0CF
:100BD000012000E0002070470C4914310860704784
:100BE000014600200022094B1B6803EA0102074B63
:100BF00014331B680B4202D00AB1012000E0002030
:100C00007047024914310860704700000004014039
:100C1000FFFF0F0010B50446FB48844209D10121B3
:100C20008803FFF71BFF00214FF48040FFF716FFFA
:100C300032E0F648844209D101214804FFF71BFF46
:100C400000214FF40030FFF716FF25E0F048844202
:100C500009D101218804FFF70EFF00214FF4802005
:100C6000FFF709FF18E0EB48844209D10121C804CD
:100C7000FFF701FF00214FF40020FFF7FCFE0BE01F
:100C8000E548844208D101210805FFF7F4FE002160
:100C90004FF48010FFF7EFFE10BD2DE9F04786B04E
:100CA00005460E460024A24600BFA1460027B08993
:100CB00000B100BF2F462C8A4CF6FF700440F0882C
:100CC00004432C82AC894EF6F3100440B08831897D
:100CD0000843718908430443AC81AC8A4FF6FF4056
:100CE0000440B0890443AC8201A8FFF730FEC64837
:100CF000874202D1DDF810A001E0DDF80CA0A88940
:100D000010F4004F08D00AEBCA0000EB0A1031685B
:100D10004900B0FBF1F807E00AEBCA0000EB0A104B
:100D200031688900B0FBF1F86420B8FBF0F00401F1
:100D30002009642101FB1089A88910F4004F08D014
:100D4000322000EBC900B0FBF1F000F007000443D3
:100D500008E0322000EB09106421B0FBF1F000F054
:100D60000F0004432C8106B0BDE8F0874FF4165104
:100D7000016000218180C18001810C21418100211D
:100D80008181704710B502460020108A4FF2FF03A0
:100D900018400B884C8823438C882343CC882343FA
:100DA0001843108210BD0021018041808180C180E4
:100DB000704721B1828942F40052828104E0828925
:100DC0004DF6FF731A4082817047F0B50346002448
:100DD000002600250020A1F510676A3F00D100BF62
:100DE0001846C1F3421401F01F06012707FA06F561
:100DF000012C01D10C3004E0022C01D1103000E0B4
:100E000014301AB107682F43076002E00768AF4348
:100E10000760F0BD1AB1838A0B43838202E0838AA4
:100E20008B4383827047028A4FF6F0731A40028226
:100E3000028A0A430282704782894FF2FF731A4086
:100E4000828182890A438281704721B1828942F07E
:100E50000202828104E082894FF6FD731A4082818A
:100E60007047028A4FF6DF731A400282028A0A43F1
:100E70000282704721B1028A42F48042028204E079
:100E8000028A4BF6FF731A4002827047C1F30802D0
:100E90008280704701468888C0F3080070478189C6
:100EA00041F0010181817047028BD2B20283028B33
:100EB00042EA012202837047028B02F47F420283DE
:100EC000028B0A430283704721B1828A42F02002DA
:100ED000828204E0828A4FF6DF731A408282704772
:100EE00021B1828A42F01002828204E0828A4FF6A7
:100EF000EF731A408282704721B1828A42F0080261
:100F0000828204E0828A4FF6F7731A408282704729
:100F100021B1828942F40042828103E08289C2F3D6
:100F20000E028281704721B1828A42F4006282827D
:100F300004E0828A4FF2FF731A4082827047828AED
:100F40004FF6FB731A408282828A0A43828270477C
:100F500021B1828A42F00202828204E0828A4FF644
:100F6000FD731A408282704702460020B1F5007F6F
:100F700000D100BF13880B4201D0012000E0002007
:100F8000704701F40072B2F5007F00D100BFCA4380
:100F90000280704770B5024600240023002500201F
:100FA000A1F510666A3E00D100BFC1F3421501F001
:100FB0001F03012606FA03F3012D02D1968933405F
:100FC00006E0022D02D1168A334001E0968A3340B2
:100FD0000C12012606FA04F41688344013B10CB141
:100FE000012000E0002070BD10B500220023A1F513
:100FF00010646A3C00D100BF0A1201249440A3B2DD
:10100000DC43048010BD0000003801400044004073
:1010100000480040004C00400050004010B504461D
:10102000FE48844208D10121C014FFF717FD0021BA
:10103000E014FFF713FDC4E0B4F1804F08D10121A3
:101040000846FFF718FD00210120FFF714FDB8E066
:10105000F348844208D101210220FFF70CFD002152
:101060000220FFF708FDACE0EE48844208D10121E0
:101070000420FFF700FD00210420FFF7FCFCA0E0A6
:10108000E948844208D101210820FFF7F4FC00213F
:101090000820FFF7F0FC94E0E448844208D10121E5
:1010A0001020FFF7E8FC00211020FFF7E4FC88E0A7
:1010B000DF48844208D101212020FFF7DCFC002119
:1010C0002020FFF7D8FC7CE0DA48844208D10121D7
:1010D0004014FFF7C3FC00216014FFF7BFFC70E071
:1010E000D548844209D10121C804FFF7B7FC00218B
:1010F0004FF40020FFF7B2FC63E0D048844209D1EE
:1011000001210805FFF7AAFC00214FF48010FFF72A
:10111000A5FC56E0CA48844209D101214805FFF7E1
:101120009DFC00214FF40010FFF798FC49E0C548F2
:10113000844208D101214020FFF79DFC002140207E
:10114000FFF799FC3DE0C048844208D1012180208E
:10115000FFF791FC00218020FFF78DFC31E0BB48B8
:10116000844208D101218015FFF785FC0021A015DC
:10117000FFF781FC25E0B648844209D1012108042B
:10118000FFF76CFC00214FF48030FFF767FC18E09C
:10119000B048844209D101214804FFF75FFC0021D7
:1011A0004FF40030FFF75AFC0BE0AB48844208D103
:1011B00001218804FFF752FC00214FF48020FFF743
:1011C0004DFC10BD00220288944B98420ED0994BE2
:1011D00098420BD0B0F1804F08D0914B984205D087
:1011E000904B984202D0904B984204D14FF68F73A7
:1011F0001A404B881A438D4B984207D08C4B98422B
:1012000004D04FF6FF431A40CB881A4302808B88E4
:1012100083850B880385814B98420BD0854B984280
:1012200008D08B4B984205D08A4B984202D08A4B0B
:10123000984201D10B7A038601238382704770B5EF
:10124000002400220023058C4FF6FE7635400584ED
:10125000028C8388048B4FF68F752C40B51E2C4072
:101260000D882C43751E2A400D892A434D882A4338
:101270006A4DA8420BD06F4DA84208D0744DA842C9
:1012800005D0744DA84202D0734DA84213D14FF639
:10129000F7752A404D892A434FF6FB752A408D8801
:1012A0002A434FF6FF652B404FF6FF552B408D89A3
:1012B0002B43CD892B4383800483CD88858602848C
:1012C00070BD70B5002400220023058C4FF6EF7628
:1012D00035400584028C8388048B48F6FF752C40CA
:1012E0004FF6FF452C400D884FF6FF7606EA0525A0
:1012F0002C434FF6DF752A400D8906EA05152A436F
:101300004D8806EA05152A43444DA84202D0494DAE
:10131000A8421DD14FF67F752A404D894FF6FF76C2
:1013200006EA05152A434FF6BF752A408D8806EA5E
:1013300005152A434FF6FF352B404FF2FF752B4022
:101340008D8906EA85052B43CD8906EA85052B4361
:1013500083800483CD880587028470BD70B5002426
:1013600000220023058C4FF6FF6635400584028C71
:101370008388848B4FF68F752C404FF6FC752C407C
:101380000D882C434FF6FF552A400D894FF6FF7606
:1013900006EA05252A434D8806EA05252A431F4DFE
:1013A000A84202D0234DA8421DD14FF2FF752A401A
:1013B0004D894FF6FF7606EA05252A434FF6FF359D
:1013C0002A408D8806EA05252A434EF6FF752B40F4
:1013D0004DF6FF752B408D8906EA05152B43CD8907
:1013E00006EA05152B4383808483CD888587028494
:1013F00070BD70B5002200230024058C4EF6FF76E8
:1014000035400584038C8488828B48F6FF752A401A
:101410004FF6FF452A400D8820E00000002C0140D7
:101420000004004000080040000C00400010004094
:101430000014004000340140004C014000500140C5
:101440000054014000180040001C004000200040F3
:101450000040014000440140004801404FF6FF7643
:1014600006EA05252A434DF6FF752B400D8906EA4D
:1014700005352B434D8806EA05352B43FA4DA84226
:1014800002D0FA4DA84208D14BF6FF752C408D8949
:101490004FF6FF7606EA85152C4384808283CD883B
:1014A000A0F84050038470BD828B4FF2FF331A4086
:1014B0008283828B4FF6FF7303EA01231A438283F0
:1014C0007047F0B50C461546002200210026078C17
:1014D0004EF6FF7C07EA0C070784828B018C4FF6DF
:1014E000FF7707EA043640F6FF473A404FF6FF77AA
:1014F00007EA05273A434FF6FF7707EA03373A43EF
:10150000D94FB8420ED0D94FB8420BD0B0F1804F6E
:1015100008D0D74FB84205D0D64FB84202D0D64FE8
:10152000B84206D14DF6FF77394046F4805739432B
:1015300005E047F6FF57394044F48057394382832A
:101540000184F0BD828B4FF6F3731A408283828B45
:101550000A4382837047F0B50C46154600220021ED
:101560000026078C4FF6FF6C07EA0C070784828B76
:10157000018C4FF6FF7707EA04264FF60C773A40C6
:101580004FF6FF7707EA03172F433A43B64FB842A7
:101590000ED0B64FB8420BD0B0F1804F08D0B44F48
:1015A000B84205D0B34FB84202D0B34FB84206D1CB
:1015B0004FF6FF57394046F48077394305E04FF244
:1015C000FF57394044F48077394382830184F0BD6A
:1015D000028B4FF2FF331A400283028B4FF6FF73E8
:1015E00003EA01231A4302837047F0B50C461546FF
:1015F000002200210026078C4FF6EF7C07EA0C073B
:101600000784028B018C4FF6FF7707EA041640F639
:10161000FF473A404FF6FF7707EA03373A434FF662
:10162000FF7707EA05273A438F4FB8420ED08F4F16
:10163000B8420BD0B0F1804F08D08D4FB84205D0E2
:101640008C4FB84202D08C4FB84206D14FF6DF77AC
:10165000394046F01007394305E04FF65F773940CF
:1016600044F01007394302830184F0BD028B4FF62A
:10167000F3731A400283028B0A4302837047F0B56A
:101680000C46154600220021068C4FF6FE773E40A0
:101690000684028B018C4FF60C7632407E1C06EAE3
:1016A00003162E433243704EB0420ED06F4EB042FE
:1016B0000BD0B0F1804F08D06D4EB04205D06D4ECA
:1016C000B04202D06C4EB04206D14FF6FD763140AA
:1016D00044F00106314305E04FF6F576314044F021
:1016E0000106314302830184F0BD70B505460C4606
:1016F0005D4885420ED05D4885420BD0B5F1804FE4
:1017000008D05B48854205D05A48854202D05A48E5
:10171000854200D100E000BF208850B92389A2880B
:1017200061882846FFF7ABFFE1882846FFF79EFF58
:1017300025E0208804280AD12389A28861882846C8
:10174000FFF753FFE1882846FFF742FF17E02088A4
:1017500008280AD12389A28861882846FFF7FBFE62
:10176000E1882846FFF7EEFE09E02389A288618818
:101770002846FFF7A6FEE1882846FFF795FE70BDD4
:101780002DE9F04105460C4600260127608808B97E
:10179000022600E00026A088012801D1022700E0EF
:1017A00001272088A0B92389A28861882846FFF7ED
:1017B00066FFE1882846FFF759FF23893A463146FC
:1017C0002846FFF712FFE1882846FFF701FF13E0E4
:1017D0002389A28861882846FFF707FFE188284609
:1017E000FFF7F6FE23893A4631462846FFF747FFC2
:1017F000E1882846FFF73AFFBDE8F0810A884B8868
:101800001A438B881A43CB881A430B891A434B8996
:101810001A438B891A43A0F8442070474FF6FF7192
:10182000818000210180C1804180017270470021C8
:10183000018041808180C180018141818181C1819C
:101840007047002101804180012181800021C180F9
:10185000018170470021018041808180C180018128
:101860004181818170470000002C0140003401401B
:101870000004004000080040000C004021B1028834
:1018800042F00102028004E002884FF6FE731A4023
:101890000280704731B1B0F8442042F40042A0F811
:1018A000442005E0B0F84420C2F30E02A0F8442022
:1018B00070471AB183890B43838102E083898B438C
:1018C000838170478182704741EA0203A0F8483063
:1018D00070471AB183890B43838102E083898B436C
:1018E0008381704701894FF6F8721140018170477A
:1018F0000A46002101894FF68F7319401143018177
:10190000704730B504460D4629462046FFF7F0FFE4
:10191000208940F00700208130BD2DE9F0410446C8
:101920000D4616461F46602D06D13B460122314624
:101930002046FFF75AFE05E03B460122314620468D
:10194000FFF79DFE29462046FFF7D2FF208940F091
:1019500007002081BDE8F08130B50C4600210189E7
:10196000C9B24FF6FF7505EA032515432543294300
:10197000018130BD2DE9F04105460E4617469846D7
:10198000002443463A4631462846FFF7E5FF2C89B6
:101990004FF6F870044044F007044FF68F7004408F
:1019A00044F070042C81BDE8F081F0B504460D468A
:1019B00016461F463B46324629462046FFF7CCFFD7
:1019C000208940F480402081F0BD018582827047EB
:1019D0000A46002101884FF68F7319401143018098
:1019E0007047F0B50C4615461E4600210022002324
:1019F0000189028B038C4FF6F877394021434FF66B
:101A0000FC473A4040F201173A434FF6DD773B403E
:101A10004FF6FF7707EA06172F433B430181028306
:101A20000384F0BD0A460021018B4FF68F731940E5
:101A30001143018370470A460021018B48F6FF736A
:101A400019404FF6FF7303EA0223194301837047DD
:101A50000A460021818B4FF68F7319401143818311
:101A600070470A460021818B48F6FF7319404FF6F4
:101A7000FF7303EA022319438183704721B102886F
:101A800042F08002028004E002884FF67F731A4021
:101A90000280704721B1828842F00402828004E013
:101AA00082884FF6FB731A408280704721B182888A
:101AB00042F00802828004E082884FF6F7731A40F1
:101AC0008280704721B1828842F00102828004E066
:101AD00082884FF6FE731A40828070470A460021C2
:101AE000018B4FF6F77319401143018370470A4683
:101AF0000021018B4FF2FF7319404FF6FF7303EA89
:101B000002231943018370470A460021818B4FF657
:101B1000F77319401143818370470A460021818B76
:101B20004FF2FF7319404FF6FF7303EA0223194384
:101B3000818370470A460021018B4FF6FB731940E1
:101B40001143018370470A460021018B4FF6FF3392
:101B500019404FF6FF7303EA0223194301837047CC
:101B60000A460021818B4FF6FB7319401143818394
:101B700070470A460021818B4FF6FF3319404FF61C
:101B8000FF7303EA02231943818370470A46002149
:101B9000018B4FF67F7319401143018370470A464A
:101BA0000021018BC1F30E014FF6FF7303EA0223FC
:101BB0001943018370470A460021818B4FF67F73DA
:101BC00019401143818370470A460021818BC1F37C
:101BD0000E014FF6FF7303EA022319438183704716
:101BE0000A460021018C4FF6FD7319401143018410
:101BF00070470A460021018C4FF6F77319401143D4
:101C0000018470470A460021018C4FF6DF731940AA
:101C10004FF6FF7303EA02131943018470470A4623
:101C20000021018C4FF67F7319404FF6FF7303EAD2
:101C300002131943018470470A460021018C4FF6B4
:101C4000FF5319404FF6FF7303EA0223194301843F
:101C500070470A460021018C4FF2FF7319404FF67E
:101C6000FF7303EA02231943018470470A460021E7
:101C7000018C4DF6FF7319404FF6FF7303EA0233F0
:101C800019430184704730B5002301248C40A3B26E
:101C9000048C9C430484048C02FA01F5ADB22C43FD
:101CA000048430BD30B5002304248C40A3B2048CDE
:101CB0009C430484048C02FA01F5ADB22C430484E5
:101CC00030BD70B5034600200024184618300125A9
:101CD0008D40ACB21D8CA5431D8409B1082909D1E2
:101CE00000EB6100056825F0700505600568154387
:101CF00005600EE00D1FC5F34E052844056825F468
:101D0000E045056005684FF6FF7606EA0226354392
:101D1000056070BD21B1028842F00202028004E039
:101D200002884FF6FD731A400280704721B1028885
:101D300042F00402028004E002884FF6FB731A406E
:101D40000280704721B1828842F08002828004E0E4
:101D500082884FF67F731A408280704702884FF660
:101D6000F7731A40028002880A4302807047828813
:101D70004FF68F731A40828082880A4382807047B0
:101D800002894FF6F8731A40028102890A430281E0
:101D9000704702894FF67F731A40028102890A4315
:101DA00002817047818470478185704781867047C2
:101DB0000187704781877047A0F8401070470288FC
:101DC0004FF6FF431A40028002880A4302807047A0
:101DD0000146888E70470146088F70470146888FFC
:101DE00070470146B1F8400070470146888C704743
:101DF0000146088D704702460020138A0B4201D02D
:101E0000012000E000207047CA430282704730B5CD
:101E10000246002000230024158A05EA0103958963
:101E200005EA010413B10CB1012000E0002030BD2F
:101E3000CA4302827047000010B50446FA48844243
:101E400008D101214015FEF709FE00216015FEF7BB
:101E500005FE17E0F548844208D101210015FEF780
:101E6000FDFD00212015FEF7F9FD0BE0F04884424E
:101E700008D10121C803FEF7F1FD00214FF4004015
:101E8000FEF7ECFD10BD30B502460020002350687F
:101E9000E84C20400D790C6844EA0524204350604A
:101EA0009068E54C2040D1E902542C434D7944EA36
:101EB000450420439060D06A20F470000C7C641EBE
:101EC000E4B2234340EA0350D06230BD00210160F8
:101ED000017141718160C16001210174704721B1BC
:101EE000826842F00102826003E0826822F001020F
:101EF0008260704721B1826842F48072826003E0A0
:101F0000826822F480728260704710B50023CBB2E1
:101F10001AB144681C43446002E044689C43446036
:101F200010BD816841F008018160704701460020C2
:101F30008A6812F0080F01D0012000E000207047ED
:101F4000816841F0040181607047014600208A6881
:101F500012F0040F01D0012000E00020704721B1F1
:101F6000826842F4A002826003E0826822F4A00248
:101F700082607047014600208A6812F4800F01D009
:101F8000012000E00020704710B50A460021002320
:101F9000416821F46041531E41EA4331416010BD64
:101FA00021B1426842F40062426003E0426822F4D8
:101FB000006242607047F0B504460D4600200021E3
:101FC000092D11DDE068A5F10A0606EB4607072694
:101FD00006FA07F18843A5F10A0606EB460603FA5E
:101FE00006F10843E0600CE0206905EB4507072691
:101FF00006FA07F1884305EB450603FA06F10843A4
:102000002061072A0FDA606B561E06EB86071F2633
:1020100006FA07F18843561E06EB860605FA06F116
:102020000843606322E00D2A0FDA206BD61F06EB0F
:1020300086071F2606FA07F18843D61F06EB860699
:1020400005FA06F10843206310E0E06AA2F10D06EC
:1020500006EB86071F2606FA07F18843A2F10D0654
:1020600006EB860605FA06F10843E062F0BD21B1F1
:10207000826842F48012826003E0826822F4801257
:10208000826070470146C86C80B2704766484C3029
:102090000068704721B1426842F48062426003E008
:1020A000426822F480624260704721B1426842F483
:1020B0008052426003E0426822F4805242607047DE
:1020C0000A460021816821F4E04111438160704794
:1020D00021B1826842F40042826003E0826822F407
:1020E00000428260704721B1826842F4021282602D
:1020F00003E0826822F402128260704701460020E9
:102100008A6812F4001F01D0012000E0002070470F
:10211000F0B504461546002000220026092911DDED
:10212000E068A1F10A0707EB470C072707FA0CF252
:102130009043A1F10A0707EB470703FA07F21043A0
:10214000E0600CE0206901EB410C072707FA0CF274
:10215000904301EB410703FA07F210432061A06BA3
:10216000C0F30156EF1C06F1010CA7EB0C0707EBBF
:10217000870C1F2707FA0CF29043EF1C06F1010CA5
:10218000A7EB0C0707EB870701FA07F21043A063E0
:10219000F0BD10B50A4600210023816B21F44011E7
:1021A000531E41EA0351816310BD08B5002300931B
:1021B0000090009B0B440093009B1A6008BD08B57B
:1021C000024600200090009201F12800009B184474
:1021D00000900098006880B208BD0A46002141685E
:1021E000164B19401143416070474162826270474B
:1021F0000A460021416821F01F01114341607047E8
:1022000040B109490831096841F40001064A083221
:10221000116007E004490831096821F40001024A0D
:10222000083211607047000000240140002801407E
:10223000003C0140FFFEF0FFFDF7F1FFFFFD3FFF17
:102240000246002013680B4201D0012000E000206C
:102250007047CA430260704770B5024600200023F1
:1022600000240B125568CEB205EA060415681D421B
:1022700002D00CB1012000E0002070BD00220A1243
:10228000D34303607047000001684FF6FE721140AF
:1022900001600021016041608160C1608C49884219
:1022A00008D18B490839496841F00F01884A083A3A
:1022B00051608AE086491431884208D1844908393E
:1022C000496841F0F001824A083A51607DE0804956
:1022D0002831884208D17E490839496841F4706143
:1022E0007B4A083A516070E079493C31884208D114
:1022F00077490839496841F47041754A083A516094
:1023000063E073495031884208D1714908394968FE
:1023100041F470216E4A083A516056E06C496431CC
:10232000884208D16A490839496841F47001684A0D
:10233000083A516049E066497831884208D16449D9
:102340000839496841F07061614A083A51603CE0DF
:102350006049884206D1011F096841F00F01021F40
:10236000116032E05B491431884208D15949091F94
:10237000096841F0F001574A121F116025E05549E4
:102380002831884208D15349091F096841F4706116
:10239000504A121F116018E04E493C31884208D162
:1023A0004C49091F096841F470414A4A121F1160E3
:1023B0000BE048495031884207D14649091F096856
:1023C00041F47021434A121F1160704710B500227A
:1023D000026847F6F0739A430C6A8B6823430C69D2
:1023E00023434C6923438C692343CC6923434C6AC0
:1023F00023438C6A23431A430260CB6843600B6813
:1024000083604B68C36010BD002101604160816042
:10241000C160016141618161C161016241628162AA
:10242000704721B1026842F00102026004E00268D4
:102430004FF6FE731A40026070471AB103680B43EF
:10244000036002E003688B4303607047416070479C
:102450000146486880B2704701460020002211F012
:10246000805F03D01B4B083B1A6802E0184B083B07
:102470001A680A4201D0012000E00020704710F0E5
:10248000805F03D01349091F086002E01049083932
:102490004860704701460020002211F0805F03D0A1
:1024A0000C4B083B1A6802E0094B083B1A680A42C9
:1024B00001D0012000E00020704710F0805F03D0C1
:1024C0000449091F086002E0014908394860704763
:1024D000080002400804024000F066F900F00EF91E
:1024E0004FF4C060FDF71CFF00F066FA00F0F4FB4B
:1024F00002A000F023FC00BFFEE700000D0AC4FAB2
:10250000B7A2CBCDB5C4CFFBCFA2CEAA3A0D0A0D50
:102510000A000000704700BFFEE700BFFEE700BFF3
:10252000FEE700BFFEE770477047704710B500F048
:1025300081F910BD10B54FF40040FEF751FB18B102
:102540004FF40040FEF75DFB10BD10B540F2255181
:102550006648FEF71FFD00287ED06448001D0088F5
:10256000634908706348007888B908460078AA284B
:102570000CD10846007860490968087001205D495F
:1025800008705B4800785C4909684872A8E05948BF
:102590000078012811D15648007857490968C87059
:1025A00002205449087054480068407A504909781C
:1025B000084451490968487292E04E480078022860
:1025C00021D14B4801784C480068827A4A4800681B
:1025D000807A401C484B1B68987247480068401D31
:1025E000815445480068407A414909780844424985
:1025F0000968487240480068807A042870D1032036
:102600003C4908706CE03B480078032868D13A48A0
:102610000068407A3649097888425BD100BF802142
:102620003248FEF7A1FC0028F9D0AA212F48FEF776
:102630002DFC00BF80212D48FEF796FC0028F9D024
:10264000BB212A48FEF722FC00BF80212748FEF765
:102650008BFC0028F9D000E047E000212348FEF77A
:1026600015FC00BF80212148FEF77EFC0028F9D030
:1026700000211E48FEF70AFC00BF80211B48FEF720
:1026800073FC0028F9D000211848FEF7FFFB00BFBB
:1026900080211648FEF768FC0028F9D00021134875
:1026A000FEF7F4FB00BF80211048FEF75DFC002818
:1026B000F9D000210D48FEF7E9FB00BF80210B484F
:1026C000FEF752FC0028F9D00B480068C0780228B9
:1026D00000D000BF002007490870074909688872C8
:1026E00040F225510148FEF77FFC10BD0044004038
:1026F0002A000020310000202C00002008B5012114
:102700007C20FEF791F949F61170ADF80000142015
:102710008DF8030003208DF8020069461D48FDF77F
:10272000CDFE4FF63C70ADF8000014208DF803008C
:1027300003208DF8020069461748FDF7BFFE4FF6EB
:10274000C070ADF8000014208DF8030003208DF850
:10275000020069461148FDF7B1FE4FF6FC70ADF876
:10276000000014208DF8030003208DF80200694654
:102770000B48FDF7A3FE4FF6FF70ADF800001420E4
:102780008DF8030003208DF8020069460548FDF727
:1027900095FE08BD00080140000C014000100140FA
:1027A000001401400018014030B5274800684FF47C
:1027B0007A72B0FBF2F1B1F1807F01D301201BE00E
:1027C00021F07F40401E4FF0E022506150170F2251
:1027D000002806DA13011D4C00F00F052D1F63556C
:1027E00002E013011A4C235400BF00204FF0E022F6
:1027F000906107201061002008B100BFFEE74FF094
:10280000E020006920F001004FF0E021086130BDB8
:1028100001B51049009808604FF0E020006940F0D1
:1028200001004FF0E021086100BF0A48006800285D
:10283000FBD108BD0748006820B106480068401E6B
:1028400004490860704700000000002018ED00E017
:1028500000E400E03400002030B589B005460C46A5
:1028600001210820FEF7EDF801210420FEF7DCF835
:102870000120ADF8140028208DF8170005A94A485A
:10288000FDF71CFE01214848FDF7C5FEADF80C50D0
:10289000ADF808400020ADF80E00ADF80A0002A91E
:1028A0004248FEF78FFC0020ADF81800ADF81A0082
:1028B0000120ADF81C000020ADF81E00ADF820008E
:1028C00006A93A48FEF711FF32208DF804000120D6
:1028D0008DF805008DF806008DF8070001A8FDF7BA
:1028E00024FD012203213148FEF7E3FF01212F4897
:1028F000FEF7C4FF09B030BD10B52D48007810F0C8
:10290000800F4CD101212948FFF781FAD0B1284826
:10291000007810F0400F15D02548007800F03F00F7
:102920003F280AD12248007840F0800020490870F2
:102930004FF6FF701F49088004E01D480078401CD6
:102940001B49087002211948FFF761FA38B318488B
:10295000007810F0400F0FD01548007840F080004C
:10296000134908701148FFF733FA12490880002113
:102970000E48FFF735F912E000200D4908700D49A7
:10298000088000210948FFF70DFA0948007840F057
:1029900040000749087002210448FFF721F903218C
:1029A0000248FFF745FA10BD00080140000C004046
:1029B000380000203A00002000B587B00121042033
:1029C000FEF732F801214804FEF73BF80420ADF889
:1029D000180018208DF81B0003208DF81A0006A996
:1029E0007E48FDF76BFD0820ADF8180004208DF837
:1029F0001B0006A97948FDF761FD4FF4E130029014
:102A00000020ADF80C00ADF80E00ADF81000ADF8E8
:102A100014000C20ADF8120002A97148FEF73DF930
:102A200026208DF8040001208DF8050000208DF887
:102A3000060001208DF8070001A8FDF776FC0122B1
:102A400040F225516648FEF7C0F901216448FEF7BF
:102A5000B0F907B000BD70B504460D46E1B260485C
:102A6000FEF714FA00BF5E48008810F0800FFAD01D
:102A7000204670BDF0B503460D4616460027294690
:102A80000A2E03D0002008702846F0BD33B930204C
:102A900001F8010B002008702846F6E7002B03DA46
:102AA0002D2001F8010B5B4242F210720DE093FB06
:102AB000F2F404B937B104F1300001F8010B04FB62
:102AC000123301270A2092FBF0F2002AEFDC0020EB
:102AD00008702846D9E70FB470B586B006460CA832
:102AE000019073E00B9800785C281CD10B98401C77
:102AF0000B9000786E2809D072280FD10D21304636
:102B0000FEF7C4F90B98401C0B900BE00A213046ED
:102B1000FEF7BCF90B98401C0B9003E00B98401C8F
:102B20000B9000BF4BE00B980078252840D10B9804
:102B3000401C0B900078642818D0732833D101987A
:102B400010C801900BE021783046FEF79FF900BFD6
:102B500040213046FEF708FA0028F9D0641C20789E
:102B60000028F0D10B98401C0B9020E0019820C861
:102B700001900A2202A92846FFF77CFF02AC0BE075
:102B800021783046FEF782F900BF40213046FEF73B
:102B9000EBF90028F9D0641C20780028F0D10B98BC
:102BA000401C0B9003E00B98401C0B9000BF06E00C
:102BB0000B9810F8011B0B903046FEF767F900BF29
:102BC00040213046FEF7D0F90028F9D00B98007864
:102BD000002887D106B070BC5DF814FB00080140E6
:102BE0000044004008B501210846FDF710FF01210F
:102BF0004FF40170FDF718FF0120ADF80000002030
:102C00008DF8030069463748FDF758FC08BD00B54C
:102C100091B03548FFF738FB3448069034480790A8
:102C2000002008900120099000200A900B904FF49A
:102C300080700C9080000D9020200E9000020F906C
:102C40000020109006A92848FFF7C0FB0121264864
:102C5000FFF7E7FB002001908DF8080001208DF8B8
:102C600009004FF4602003900020049001208DF8AB
:102C7000140001A91D484C38FFF705F9052301226E
:102C800000211A484C38FFF796F9012117484C38B3
:102C9000FFF730F9012115484C38FFF720F91348A8
:102CA0004C38FFF73EF900BF10484C38FFF73EF9AB
:102CB0000028F9D10D484C38FFF742F900BF0B4806
:102CC0004C38FFF742F90028F9D1012107484C3868
:102CD000FFF745F911B000BD10B5FFF783FFFFF70F
:102CE00096FF10BD00080140080002404C2401403E
:102CF0003C0000200648804706480047FEE7FEE704
:102D0000FEE7FEE7FEE7FEE7FEE7FEE7FEE7FEE79B
:102D10002102000831010008064C074D06E0E0687A
:102D200040F0010394E8070098471034AC42F6D312
:102D3000FDF702FA8C2D0008AC2D0008014A02496B
:102D400000F013B8572A00084000002002E008C82D
:102D5000121F08C1002AFAD170477047002001E015
:102D600001C1121F002AFBD170472DE9F041164620
:102D70000F460446002503E03946B0476D1C641C2D
:102D800020780028F8D12846BDE8F081AC2D000855
:102D900000000020440000004C2D0008F02D000829
:102DA000440000201C0400005C2D000800A24A041E
:102DB00000000000000000000102030406070809EB
:102DC00000000000010203040102030406070809D1
:102DD000020406080000000044000020000000007B
:102DE00000000000000000000000000000000000E3
:0400000508000131BD
:00000001FF
